:100000000C942A000C9447000C9447000C94470071
:100010000C9447000C9447000C9447000C94470044
:100020000C9447000C9447000C9447000C94470034
:100030000C9447000C9447000C9447000C94470024
:100040000C9447000C9447000C9447000C94470014
:100050000C94470011241FBECFE5D4E0DEBFCDBF16
:1000600010E0A0E6B0E0EAEBF9E202C005900D92E4
:10007000A838B107D9F710E0A8E8B0E001C01D9298
:10008000A13AB107E1F70E944B120C94DB140C94D7
:100090000000EF92FF920F931F937B018C0120E0F1
:1000A00030E040E05FE40E94490388238CF0C801FF
:1000B000B70120E030E040E05FE40E94C1010E940F
:1000C000A9039B01AC01205030404040504806C07D
:1000D000C801B7010E94A9039B01AC01B901CA0183
:1000E0001F910F91FF90EF900895A0E0B0E0EBE733
:1000F000F0E00C949D14DC012B01FA019C919230EC
:1001000008F439C1EB018881823008F433C194309E
:1001100069F4843009F02FC111969C91119789815F
:10012000981709F428C1A0E6B0E025C1843009F48D
:1001300021C18230A9F4923009F01DC19A01AD01AC
:1001400088E0EA010990AE01E90109929E0181501F
:10015000C1F7E201898111969C918923818308C1AD
:10016000923009F407C112962D903C901397EB0141
:100170008A819B811496AD90BD90CD90DC901797AD
:10018000EC80FD800E811F819101281B390BB90184
:1001900037FF04C066277727621B730B6032710537
:1001A0000CF061C0121613066CF537014801062EDB
:1001B00004C096948794779467940A94D2F721E0C8
:1001C00030E040E050E004C0220F331F441F551FB1
:1001D0006A95D2F721503040404050402E213F21B7
:1001E00040235123211531054105510521F021E01E
:1001F00030E040E050E079018A01E628F72808293C
:1002000019293CC0232BD1F1260E371E350146019A
:10021000062E04C096948794779467940A94D2F734
:1002200021E030E040E050E004C0220F331F441FC3
:10023000551F6A95D2F721503040404050402A2146
:100240003B214C215D21211531054105510521F04E
:1002500021E030E040E050E059016A01A628B728CB
:10026000C828D9280BC0821593052CF01C01AA249C
:10027000BB24650103C0EE24FF24870111969C91E5
:10028000D20111968C91981709F445C0992339F041
:10029000A80197012A193B094C095D0906C0A6016E
:1002A00095012E193F09400B510B57FD08C01182D3
:1002B0003382228224833583468357831DC081E0A5
:1002C00081833382228288279927DC01821B930B4A
:1002D000A40BB50B84839583A683B7830DC0220F2F
:1002E000331F441F551F24833583468357838281E0
:1002F000938101979383828324813581468157813D
:10030000DA01C9010197A109B1098F5F9F4FAF4F72
:10031000BF4328F30BC0918333822282EA0CFB1C7B
:100320000C1D1D1DE482F5820683178383E0808304
:10033000248135814681578157FF1AC0C901AA27F8
:1003400097FDA095BA2F81709070A070B0705695EF
:10035000479537952795822B932BA42BB52B848318
:100360009583A683B7838281938101969383828349
:10037000DF0101C0D201CD01CDB7DEB7E2E10C94BF
:10038000B914A0E2B0E0E7ECF1E00C94A9146983A1
:100390007A838B839C832D833E834F835887E9E048
:1003A000EE2EF12CEC0EFD1ECE010196B7010E943F
:1003B000D2048E010F5E1F4FCE010596B8010E9438
:1003C000D2048A8991E089278A8BC701B801AE01DE
:1003D000475E5F4F0E9475000E94FD03A096E6E015
:1003E0000C94C514A0E2B0E0E8EFF1E00C94A9147D
:1003F00069837A838B839C832D833E834F835887C5
:10040000F9E0EF2EF12CEC0EFD1ECE010196B701A6
:100410000E94D2048E010F5E1F4FCE010596B801D7
:100420000E94D204C701B801AE01475E5F4F0E942F
:1004300075000E94FD03A096E6E00C94C514A0E2AE
:10044000B0E0E5E2F2E00C949D1469837A838B833B
:100450009C832D833E834F835887CE010196BE0136
:10046000675F7F4F0E94D204CE010596BE016F5E8A
:100470007F4F0E94D2049985923088F0898982301A
:10048000C8F0943019F4823051F404C0843029F457
:10049000923081F480E690E0C6C0923049F420E0CA
:1004A0009A858A89981321E02A87CE010996BBC0D4
:1004B000823049F420E09A858A89981321E02A8BBA
:1004C000CE014196B0C02D843E844F8458886D88FB
:1004D0007E888F88988CEE24FF248701AA24BB2471
:1004E000650140E050E060E070E0E0E0F0E0C10174
:1004F00081709070892BE9F0E60CF71C081D191D1E
:100500009A01AB012A0D3B1D4C1D5D1D80E090E062
:10051000A0E0B0E0E614F7040805190520F481E036
:1005200090E0A0E0B0E0BA01A901480F591F6A1F8E
:100530007B1FAA0CBB1CCC1CDD1C97FE08C081E0F5
:1005400090E0A0E0B0E0A82AB92ACA2ADB2A3196B6
:10055000E032F10549F0660C771C881C991C569412
:10056000479437942794C3CFFA85EA892B893C892D
:100570008B859C85280F391F2E5F3F4F17C0CA01FE
:1005800081709070892B61F016950795F794E79428
:1005900080E090E0A0E0B0E8E82AF92A0A2B1B2BC3
:1005A00076956795579547952F5F3F4F77FDE7CF36
:1005B0000CC0440F551F661F771F17FD4160EE0CDE
:1005C000FF1C001F111F21503040403090E05907A0
:1005D00090E0690790E4790760F32B8F3C8FDB0193
:1005E000CA018F779070A070B07080349105A1051A
:1005F000B10561F447FD0AC0E114F10401051105DC
:1006000029F0405C5F4F6F4F7F4F40781A8EFE1786
:1006100011F081E08A8F4D8F5E8F6F8F78A383E01A
:10062000898FCE0149960E94FD03A096E2E10C94C9
:10063000B914A8E1B0E0EFE1F3E00C94A9146983E8
:100640007A838B839C832D833E834F83588789E0F5
:10065000E82EF12CEC0EFD1ECE010196B7010E9492
:10066000D2048E010F5E1F4FCE010596B8010E9485
:10067000D2048985823040F08989823028F0C70110
:10068000B8010E944A0501C08FEF6896E6E00C941D
:10069000C514A8E1B0E0EFE4F3E00C94A914698379
:1006A0007A838B839C832D833E834F83588789E095
:1006B000E82EF12CEC0EFD1ECE010196B7010E9432
:1006C000D2048E010F5E1F4FCE010596B8010E9425
:1006D000D2048985823040F08989823028F0C701B0
:1006E000B8010E944A0501C08FEF6896E6E00C94BD
:1006F000C514A8E1B0E0EFE7F3E00C94A914698316
:100700007A838B839C832D833E834F83588789E034
:10071000E82EF12CEC0EFD1ECE010196B7010E94D1
:10072000D2048E010F5E1F4FCE010596B8010E94C4
:10073000D2048985823040F08989823028F0C7014F
:10074000B8010E944A0501C081E06896E6E00C9479
:10075000C514ACE0B0E0EFEAF3E00C94AD146983AB
:100760007A838B839C83CE010196BE016B5F7F4FA2
:100770000E94D2048D81823061F1823050F1843048
:1007800021F48E81882351F12EC02F81388537FDC9
:1007900020C06E812F3131051CF06623F9F023C093
:1007A0008EE190E0821B930B29853A854B855C8511
:1007B00004C056954795379527958A95D2F76623B5
:1007C000B1F050954095309521953F4F4F4F5F4F79
:1007D0000EC020E030E040E050E009C02FEF3FEFD6
:1007E0004FEF5FE704C020E030E040E050E8B9019F
:1007F000CA012C96E2E00C94C914DF92EF92FF92AA
:100800000F931F93FC01E480F58006811781D1804E
:100810008081823048F480E090E0A0E1B0E0E82AF6
:10082000F92A0A2B1B2BA5C0843009F49FC0823003
:1008300021F4EE24FF24870105C0E114F104010531
:10084000110519F4E0E0F0E096C0628173819FEF3A
:10085000623879070CF05BC022E83FEF261B370BAC
:100860002A3131052CF020E030E040E050E02AC091
:10087000B801A701022E04C0769567955795479554
:100880000A94D2F781E090E0A0E0B0E004C0880FC5
:10089000991FAA1FBB1F2A95D2F70197A109B10979
:1008A0008E219F21A023B1230097A105B10521F03E
:1008B00081E090E0A0E0B0E09A01AB01282B392B59
:1008C0004A2B5B2BDA01C9018F779070A070B07052
:1008D00080349105A105B10539F427FF09C0205CDA
:1008E0003F4F4F4F5F4F04C0215C3F4F4F4F5F4F13
:1008F000E0E0F0E02030A0E03A07A0E04A07A0E402
:100900005A0710F0E1E0F0E079018A0127C0603871
:10091000710564F5FB01E158FF4FD801C7018F77DE
:100920009070A070B07080349105A105B10539F4C4
:10093000E7FE0DC080E490E0A0E0B0E004C08FE3EB
:1009400090E0A0E0B0E0E80EF91E0A1F1B1F17FFA1
:1009500005C016950795F794E794319687E01695AC
:100960000795F794E7948A95D1F705C0EE24FF2404
:100970008701EFEFF0E06E2F679566276795902F60
:100980009F77D794DD24D7948E2F8695492F462BB9
:10099000582F5D29B701CA011F910F91FF90EF9069
:1009A000DF900895FC01DB01408151812281622F9B
:1009B0006F7770E0221F2227221F9381892F880FD3
:1009C000822B282F30E0991F9927991F11969C930D
:1009D000119721153105A9F54115510561057105DD
:1009E00011F482E037C082E89FEF13969C938E93B8
:1009F00012979A01AB0167E0220F331F441F551F66
:100A00006A95D1F783E08C930DC0220F331F441FEA
:100A1000551F12968D919C911397019713969C9355
:100A20008E931297203080E0380780E0480780E4FA
:100A3000580758F314962D933D934D935C93179755
:100A400008952F3F310579F4411551056105710570
:100A500019F484E08C93089564FF03C081E08C93C3
:100A600012C01C9210C02F57304013963C932E9307
:100A7000129783E08C9387E0440F551F661F771F02
:100A80008A95D1F7706414964D935D936D937C9322
:100A9000179708951F93DC01FB019C91923008F495
:100AA00047C08081823008F443C0943051F41196DD
:100AB0001C91843099F58181682F70E0611B710968
:100AC0003FC0843021F0923031F48230B9F181811D
:100AD000882389F12DC011961C9111978230F1F075
:100AE00081811817D9F412962D913C911397828128
:100AF00093818217930794F028173907BCF0149656
:100B00008D919D910D90BC91A02D248135814681C0
:100B10005781281739074A075B0718F4112341F05A
:100B20000AC082179307A407B50740F4112319F0F0
:100B300061E070E005C06FEF7FEF02C060E070E041
:100B4000CB011F910895DF93CF93CDB7DEB7EAE3D2
:100B5000F0E08FE08083E7E3F0E087E08083E4E388
:100B6000F0E01082E1E3F0E08FEF8083EBE3F0E070
:100B70008FEF8083E8E3F0E01082E5E3F0E010829D
:100B8000E2E3F0E01082CF91DF910895DF93CF93FD
:100B9000CDB7DEB72E970FB6F894DEBF0FBECDBF30
:100BA0008A836B834C8381E089838A81843008F057
:100BB0000CC18B81883008F008C18C81813021F014
:100BC0008C81882309F001C18A81282F30E03E877B
:100BD0002D878D859E858130910509F44FC02D8527
:100BE0003E85223031052CF48D859E85009771F06D
:100BF000EDC02D853E852230310509F477C08D8505
:100C00009E858330910509F4A9C0E0C08C81282F0E
:100C100030E03C872B878B859C850097D1F02B8516
:100C20003C852130310509F0D1C0AAE3B0E0EAE308
:100C3000F0E08081482F8B81282F30E081E090E028
:100C4000022E02C0880F991F0A94E2F7842B8C931E
:100C5000BDC0AAE3B0E0EAE3F0E08081482F8B81D9
:100C6000282F30E081E090E0022E02C0880F991F0B
:100C70000A94E2F7809584238C93A8C08C81282F56
:100C800030E03A87298789859A850097D1F02985B0
:100C90003A852130310509F099C0A7E3B0E0E7E3D8
:100CA000F0E08081482F8B81282F30E081E090E0B8
:100CB000022E02C0880F991F0A94E2F7842B8C93AE
:100CC00085C0A7E3B0E0E7E3F0E08081482F8B81A7
:100CD000282F30E081E090E0022E02C0880F991F9B
:100CE0000A94E2F7809584238C9370C08C81282F1E
:100CF00030E038872F838F8198850097D1F02F813E
:100D000038852130310509F061C0A4E3B0E0E4E3A7
:100D1000F0E08081482F8B81282F30E081E090E047
:100D2000022E02C0880F991F0A94E2F7842B8C933D
:100D30004DC0A4E3B0E0E4E3F0E08081482F8B8174
:100D4000282F30E081E090E0022E02C0880F991F2A
:100D50000A94E2F7809584238C9338C08C81282FE5
:100D600030E03E832D838D819E810097C9F02D81D7
:100D70003E812130310551F5A1E3B0E0E1E3F0E03F
:100D80008081482F8B81282F30E081E090E0022E77
:100D900002C0880F991F0A94E2F7842B8C9316C027
:100DA000A1E3B0E0E1E3F0E08081482F8B81282FC0
:100DB00030E081E090E0022E02C0880F991F0A9473
:100DC000E2F7809584238C9301C0198289812E9645
:100DD0000FB6F894DEBF0FBECDBFCF91DF9108955F
:100DE000DF93CF93CDB7DEB72E970FB6F894DEBF63
:100DF0000FBECDBF8A836B834C8381E089838B8157
:100E0000883008F008C18A81282F30E03E872D877E
:100E10008D859E858130910509F450C02D853E85D4
:100E2000223031052CF48D859E85009771F0F1C03C
:100E30002D853E852230310509F479C08D859E854A
:100E40008330910509F4ACC0E4C08C81282F30E0D8
:100E50003C872B878B859C850097C9F02B853C852B
:100E60002130310549F5ABE3B0E0EBE3F0E0808100
:100E7000482F8B81282F30E081E090E0022E02C0C5
:100E8000880F991F0A94E2F7842B8C93C5C0ABE3BB
:100E9000B0E0EBE3F0E08081482F8B81282F30E039
:100EA00081E090E0022E02C0880F991F0A94E2F7B9
:100EB000809584238C93B0C01982AEC08C81282F7A
:100EC00030E03A87298789859A850097C9F0298576
:100ED0003A852130310549F5A8E3B0E0E8E3F0E0D8
:100EE0008081482F8B81282F30E081E090E0022E16
:100EF00002C0880F991F0A94E2F7842B8C938CC050
:100F0000A8E3B0E0E8E3F0E08081482F8B81282F50
:100F100030E081E090E0022E02C0880F991F0A9411
:100F2000E2F7809584238C9377C0198275C08C81F9
:100F3000282F30E038872F838F8198850097C9F05C
:100F40002F8138852130310549F5A5E3B0E0E5E38F
:100F5000F0E08081482F8B81282F30E081E090E005
:100F6000022E02C0880F991F0A94E2F7842B8C93FB
:100F700053C0A5E3B0E0E5E3F0E08081482F8B812A
:100F8000282F30E081E090E0022E02C0880F991FE8
:100F90000A94E2F7809584238C933EC019823CC06A
:100FA0008C81282F30E03E832D838D819E81009798
:100FB000C9F02D813E812130310549F5A2E3B0E031
:100FC000E2E3F0E08081482F8B81282F30E081E040
:100FD00090E0022E02C0880F991F0A94E2F7842B3A
:100FE0008C931AC0A2E3B0E0E2E3F0E08081482FE6
:100FF0008B81282F30E081E090E0022E02C0880F24
:10100000991F0A94E2F7809584238C9305C0198276
:1010100003C0198201C0198289812E960FB6F894F7
:10102000DEBF0FBECDBFCF91DF910895DF93CF9389
:10103000CDB7DEB728970FB6F894DEBF0FBECDBF91
:101040008B836C835E834D8381E08A838B818430C4
:1010500008F09FC08C81883008F09BC08D819E81F4
:10106000009709F496C08B81282F30E038872F83B2
:101070004F81588541305105A9F18F819885823083
:10108000910534F42F8138852115310571F082C026
:101090004F8158854230510509F441C08F819885B0
:1010A0008330910509F458C075C0E9E3F0E0808110
:1010B000282F30E08C81882F90E0A90102C055953F
:1010C00047958A95E2F7CA018170898389818823CF
:1010D00021F4ED81FE8110825DC0ED81FE8181E011
:1010E000808358C0E6E3F0E08081282F30E08C81D7
:1010F000882F90E0A90102C0559547958A95E2F79F
:10110000CA01817089838981882321F4ED81FE8160
:10111000108240C0ED81FE8181E080833BC0E3E32B
:10112000F0E08081282F30E08C81882F90E0A901A9
:1011300002C0559547958A95E2F7CA018170898367
:101140008981882321F4ED81FE81108223C0ED8105
:10115000FE8181E080831EC0E0E3F0E08081282FE3
:1011600030E08C81882F90E0A90102C05595479509
:101170008A95E2F7CA01817089838981882321F4E5
:10118000ED81FE81108206C0ED81FE8181E08083C9
:1011900001C01A828A8128960FB6F894DEBF0FBE6E
:1011A000CDBFCF91DF910895DF93CF93CDB7DEB759
:1011B0002D970FB6F894DEBF0FBECDBF8A836B8329
:1011C00081E089838B81813021F08B81882309F034
:1011D0007FC08A81282F30E03D872C878C859D85B4
:1011E0008130910571F12C853D85223031052CF43B
:1011F0008C859D85009769F069C02C853D852230DE
:101200003105B1F18C859D858330910509F447C086
:101210005DC08B81282F30E03B872A878A859B859C
:10122000009759F02A853B852130310509F051C0DE
:10123000EAE3F0E08FEF80834CC0EAE3F0E0108255
:1012400048C08B81282F30E0398728878885998589
:10125000009751F02885398521303105D1F5E7E334
:10126000F0E08FEF808335C0E7E3F0E0108231C01B
:101270008B81282F30E03F832E838E819F810097C2
:1012800051F02E813F812130310519F5E4E3F0E082
:101290008FEF80831EC0E4E3F0E010821AC08B81E0
:1012A000282F30E03D832C838C819D81009751F065
:1012B0002C813D812130310561F4E1E3F0E08FEFD5
:1012C000808307C0E1E3F0E0108203C0198201C00F
:1012D000198289812D960FB6F894DEBF0FBECDBF5F
:1012E000CF91DF910895DF93CF9300D000D00F927C
:1012F000CDB7DEB78A836B8381E089838A81282F0B
:1013000030E03D832C838C819D8181309105D1F02B
:101310002C813D81223031052CF48C819D810097F8
:1013200061F01FC02C813D812230310581F08C811C
:101330009D818330910581F014C0EBE3F0E08B8157
:10134000808310C0E8E3F0E08B8180830BC0E5E38D
:10135000F0E08B81808306C0E2E3F0E08B81808344
:1013600001C0198289810F900F900F900F900F90FC
:10137000CF91DF910895DF93CF9300D000D000D0BC
:10138000CDB7DEB78A837C836B8381E089838B81D1
:101390009C810097E9F18A81282F30E03E832D83DC
:1013A0008D819E8181309105E1F02D813E81223039
:1013B00031052CF48D819E81009761F027C02D812D
:1013C0003E8122303105A1F08D819E8183309105CF
:1013D000B1F01CC0E9E3F0E08081EB81FC81808307
:1013E00018C0E6E3F0E08081EB81FC81808311C0CE
:1013F000E3E3F0E08081EB81FC8180830AC0E0E3DD
:10140000F0E08081EB81FC81808303C0198201C000
:101410001982898126960FB6F894DEBF0FBECDBF24
:10142000CF91DF910895DF93CF93CDB7DEB7659766
:101430000FB6F894DEBF0FBECDBF9D8B8C8B81E0C5
:101440008A8B1F868C899D89009709F4F0C0EC89EE
:10145000FD898FEF8083198AE5C08989882F90E004
:10146000FC01E858FF4F908180E0692F40E00E9426
:10147000F006188AC1C08889882F90E0FC01E458E2
:10148000FF4F90819E012D5E3F4F80E0692FA901A3
:101490000E9416088B89882309F0ABC080E090E099
:1014A000A0EAB1E48B879C87AD87BE876B857C857E
:1014B0008D859E8520E030E04AEF54E40E941F02B3
:1014C000DC01CB018F839887A987BA876F817885E4
:1014D00089859A8520E030E040E85FE30E94790347
:1014E00088232CF481E090E09E838D833FC06F8140
:1014F000788589859A8520E03FEF4FE757E40E9481
:10150000190318164CF56B857C858D859E8520E02A
:1015100030E040E251E40E941F02DC01CB01BC013B
:10152000CD010E944900DC01CB019E838D830FC059
:1015300088EC90E09C838B838B819C810197F1F7F1
:101540009C838B838D819E8101979E838D838D816A
:101550009E81009769F714C06F81788589859A8587
:101560000E944900DC01CB019E838D838D819E8189
:101570009A83898389819A810197F1F79A83898374
:101580008889882F90E0FC01E458FF4F90819E01EC
:101590002D5E3F4F80E0692FA9010E9416080FC001
:1015A0008889882F90E0FC01E458FF4F90819E01CC
:1015B0002D5E3F4F80E0692FA9010E9416088B899C
:1015C000882371F38989482F50E08889282F30E0DB
:1015D000CA01880F991F880F991F820F931FFC0162
:1015E000E859FF4F8081EC89FD89808381E08F87F6
:1015F00007C088898F5F888B8889843008F43BCF47
:101600008989882F90E0FC01E858FF4F908180E0A5
:10161000692F41E00E94F0068F85813049F0898969
:101620008F5F898B8989843008F417CF01C01A8AAB
:101630008A8965960FB6F894DEBF0FBECDBFCF91F5
:10164000DF9108950F931F93DF93CF93CDB7DEB74C
:10165000C455D0400FB6F894DEBF0FBECDBFFE011B
:10166000EF5AFF4F80E090E0ACE0B2E480839183DA
:10167000A283B3838E01035B1F4FFE01EF5AFF4F1E
:10168000608171818281938120E030E04AEF54E4EF
:101690000E941F02DC01CB01F80180839183A283A9
:1016A000B383FE01E35BFF4F60817181828193818F
:1016B00020E030E040E85FE30E947903882344F4AF
:1016C000FE01E55BFF4F81E090E09183808364C081
:1016D000FE01E35BFF4F608171818281938120E095
:1016E0003FEF4FE757E40E94190318160CF043C070
:1016F000FE01EF5AFF4F608171818281938120E06A
:1017000030E040E251E40E941F02DC01CB018E0177
:10171000055B1F4FBC01CD010E944900DC01CB01DC
:10172000F801918380831FC0FE01E75BFF4F88ECC7
:1017300090E091838083FE01E75BFF4F8081918180
:101740000197F1F7FE01E75BFF4F91838083DE0194
:10175000A55BBF4FFE01E55BFF4F80819181019743
:1017600011969C938E93FE01E55BFF4F80819181E2
:101770000097D1F627C08E01055B1F4FFE01E35B8A
:10178000FF4F60817181828193810E944900DC0159
:10179000CB01F80191838083DE01A95BBF4FFE017D
:1017A000E55BFF4F808191818D939C93FE01E95B06
:1017B000FF4F808191810197F1F7FE01E95BFF4FB7
:1017C0009183808382E00E944A0EFE01ED5BFF4F11
:1017D00080E090E0A0E8BFE380839183A283B3839D
:1017E0008E01015C1F4FFE01ED5BFF4F6081718137
:1017F0008281938120E030E04AEF54E40E941F028E
:10180000DC01CB01F80180839183A283B383FE01C5
:10181000FF96608171818281938120E030E040E811
:101820005FE30E94790388232CF481E090E09EAF6F
:101830008DAF46C0FE01FF966081718182819381E8
:1018400020E03FEF4FE757E40E941903181664F5B4
:10185000FE01ED5BFF4F608171818281938120E009
:1018600030E040E251E40E941F02DC01CB01BC01E8
:10187000CD010E944900DC01CB019EAF8DAF0FC0AE
:1018800088EC90E09CAF8BAF8BAD9CAD0197F1F7EE
:101890009CAF8BAF8DAD9EAD01979EAF8DAF8DADE3
:1018A0009EAD009769F716C0FE01FF9660817181B9
:1018B000828193810E944900DC01CB019EAF8DAFF4
:1018C0008DAD9EAD9AAF89AF89AD9AAD0197F1F715
:1018D0009AAF89AF82E20E944A0E80E090E0A0E8D1
:1018E000BFE38DAB9EABAFABB8AF6DA97EA98FA99F
:1018F00098AD20E030E04AEF54E40E941F02DC0182
:10190000CB0189AB9AABABABBCAB69A97AA98BA96C
:101910009CA920E030E040E85FE30E94790388233F
:101920002CF481E090E098AB8FA73FC069A97AA919
:101930008BA99CA920E03FEF4FE757E40E941903D1
:1019400018164CF56DA97EA98FA998AD20E030E05E
:1019500040E251E40E941F02DC01CB01BC01CD0139
:101960000E944900DC01CB0198AB8FA70FC088EC27
:1019700090E09EA78DA78DA59EA50197F1F79EA744
:101980008DA78FA598A9019798AB8FA78FA598A928
:10199000009769F714C069A97AA98BA99CA90E942C
:1019A0004900DC01CB0198AB8FA78FA598A99CA714
:1019B0008BA78BA59CA50197F1F79CA78BA78CE023
:1019C0000E944A0E80E090E0A0E8BFE38FA398A7B2
:1019D000A9A7BAA76FA178A589A59AA520E030E0AC
:1019E0004AEF54E40E941F02DC01CB018BA39CA3AD
:1019F000ADA3BEA36BA17CA18DA19EA120E030E090
:101A000040E85FE30E94790388232CF481E090E0B2
:101A10009AA389A33FC06BA17CA18DA19EA120E0C8
:101A20003FEF4FE757E40E94190318164CF56FA1DA
:101A300078A589A59AA520E030E040E251E40E9413
:101A40001F02DC01CB01BC01CD010E944900DC0179
:101A5000CB019AA389A30FC088EC90E098A38F8F45
:101A60008F8D98A10197F1F798A38F8F89A19AA1E3
:101A700001979AA389A389A19AA1009769F714C035
:101A80006BA17CA18DA19EA10E944900DC01CB012C
:101A90009AA389A389A19AA19E8F8D8F8D8D9E8DEA
:101AA0000197F1F79E8F8D8F81E00E944A0E80E0B2
:101AB00090E0A0E8BFE3898F9A8FAB8FBC8F698DD0
:101AC0007A8D8B8D9C8D20E030E04AEF54E40E94AB
:101AD0001F02DC01CB018D8B9E8BAF8BB88F6D8984
:101AE0007E898F89988D20E030E040E85FE30E9496
:101AF000790388232CF481E090E09C8B8B8B3FC092
:101B00006D897E898F89988D20E03FEF4FE757E4FC
:101B10000E94190318164CF5698D7A8D8B8D9C8D5A
:101B200020E030E040E251E40E941F02DC01CB01E2
:101B3000BC01CD010E944900DC01CB019C8B8B8B49
:101B40000FC088EC90E09A8B898B89899A890197DC
:101B5000F1F79A8B898B8B899C8901979C8B8B8B56
:101B60008B899C89009769F714C06D897E898F895C
:101B7000988D0E944900DC01CB019C8B8B8B8B895B
:101B80009C89988B8F878F8598890197F1F7988B1F
:101B90008F8786E00E944A0E80E090E0A0E0B0E4EB
:101BA0008B879C87AD87BE876B857C858D859E8561
:101BB00020E030E04AEF54E40E941F02DC01CB0138
:101BC0008F839887A987BA876F81788589859A8559
:101BD00020E030E040E85FE30E94790388232CF4A2
:101BE00081E090E09E838D833FC06F8178858985F9
:101BF0009A8520E03FEF4FE757E40E94190318163B
:101C00004CF56B857C858D859E8520E030E040E23B
:101C100051E40E941F02DC01CB01BC01CD010E94F6
:101C20004900DC01CB019E838D830FC088EC90E0DE
:101C30009C838B838B819C810197F1F79C838B83A1
:101C40008D819E8101979E838D838D819E810097DA
:101C500069F714C06F81788589859A850E9449004B
:101C6000DC01CB019E838D838D819E819A83898344
:101C700089819A810197F1F79A838983CC5ADF4F42
:101C80000FB6F894DEBF0FBECDBFCF91DF911F918D
:101C90000F910895DF93CF93CDB7DEB76D970FB651
:101CA000F894DEBF0FBECDBF8D8F81E060E040E0D5
:101CB0000E94F00681E061E040E00E94F00683E0CF
:101CC0006D8D0E94730981E062E041E00E94F006A0
:101CD00080E090E0A0E0B0E4898F9A8FAB8FBC8F5A
:101CE000698D7A8D8B8D9C8D20E030E04AEF54E435
:101CF0000E941F02DC01CB018D8B9E8BAF8BB88FB6
:101D00006D897E898F89988D20E030E040E85FE31F
:101D10000E94790388232CF481E090E09C8B8B8BCC
:101D20003FC06D897E898F89988D20E03FEF4FE716
:101D300057E40E94190318164CF5698D7A8D8B8D26
:101D40009C8D20E030E040E251E40E941F02DC0163
:101D5000CB01BC01CD010E944900DC01CB019C8B71
:101D60008B8B0FC088EC90E09A8B898B89899A893C
:101D70000197F1F79A8B898B8B899C8901979C8BB2
:101D80008B8B8B899C89009769F714C06D897E893C
:101D90008F89988D0E944900DC01CB019C8B8B8B35
:101DA0008B899C89988B8F878F8598890197F1F70C
:101DB000988B8F8781E062E040E00E94F0068D8D75
:101DC000982F9295907F83E0692F0E94730981E09C
:101DD00062E041E00E94F00680E090E0A0E0B0E424
:101DE0008B879C87AD87BE876B857C858D859E851F
:101DF00020E030E04AEF54E40E941F02DC01CB01F6
:101E00008F839887A987BA876F81788589859A8516
:101E100020E030E040E85FE30E94790388232CF45F
:101E200081E090E09E838D833FC06F8178858985B6
:101E30009A8520E03FEF4FE757E40E9419031816F8
:101E40004CF56B857C858D859E8520E030E040E2F9
:101E500051E40E941F02DC01CB01BC01CD010E94B4
:101E60004900DC01CB019E838D830FC088EC90E09C
:101E70009C838B838B819C810197F1F79C838B835F
:101E80008D819E8101979E838D838D819E81009798
:101E900069F714C06F81788589859A850E94490009
:101EA000DC01CB019E838D838D819E819A83898302
:101EB00089819A810197F1F79A83898381E062E0B1
:101EC00040E00E94F0066D960FB6F894DEBF0FBE9C
:101ED000CDBFCF91DF910895DF93CF93CDB7DEB71C
:101EE000AB970FB6F894DEBF0FBECDBF8BA781E0D6
:101EF00060E041E00E94F00681E061E040E00E9485
:101F0000F00681E062E041E00E94F00683E06BA50C
:101F10000E94730981E062E040E00E94F00680E0E8
:101F200090E0A0E0B0E48FA398A7A9A7BAA76FA1FB
:101F300078A589A59AA520E030E04AEF54E40E94F4
:101F40001F02DC01CB018BA39CA3ADA3BEA36BA19D
:101F50007CA18DA19EA120E030E040E85FE30E94DB
:101F6000790388232CF481E090E09AA389A33FC0F1
:101F70006BA17CA18DA19EA120E03FEF4FE757E42C
:101F80000E94190318164CF56FA178A589A59AA58A
:101F900020E030E040E251E40E941F02DC01CB016E
:101FA000BC01CD010E944900DC01CB019AA389A3A9
:101FB0000FC088EC90E098A38F8F8F8D98A1019728
:101FC000F1F798A38F8F89A19AA101979AA389A36A
:101FD00089A19AA1009769F714C06BA17CA18DA17A
:101FE0009EA10E944900DC01CB019AA389A389A18B
:101FF0009AA19E8F8D8F8D8D9E8D0197F1F79E8F6B
:102000008D8F81E062E041E00E94F0068BA5982F61
:102010009295907F83E0692F0E94730981E062E0CE
:1020200040E00E94F00680E090E0A0E0B0E4898FFC
:102030009A8FAB8FBC8F698D7A8D8B8D9C8D20E0B4
:1020400030E04AEF54E40E941F02DC01CB018D8B8B
:102050009E8BAF8BB88F6D897E898F89988D20E09C
:1020600030E040E85FE30E94790388232CF481E0AC
:1020700090E09C8B8B8B3FC06D897E898F89988D7A
:1020800020E03FEF4FE757E40E94190318164CF584
:10209000698D7A8D8B8D9C8D20E030E040E251E49B
:1020A0000E941F02DC01CB01BC01CD010E9449004E
:1020B000DC01CB019C8B8B8B0FC088EC90E09A8B62
:1020C000898B89899A890197F1F79A8B898B8B89FA
:1020D0009C8901979C8B8B8B8B899C89009769F7D6
:1020E00014C06D897E898F89988D0E944900DC011A
:1020F000CB019C8B8B8B8B899C89988B8F878F8551
:1021000098890197F1F7988B8F8781E062E041E031
:102110000E94F00680E090E0A0E0B0E48B879C870E
:10212000AD87BE876B857C858D859E8520E030E000
:102130004AEF54E40E941F02DC01CB018F83988791
:10214000A987BA876F81788589859A8520E030E0F4
:1021500040E85FE30E94790388232CF481E090E05B
:102160009E838D833FC06F81788589859A8520E025
:102170003FEF4FE757E40E94190318164CF56B85A3
:102180007C858D859E8520E030E040E251E40E9410
:102190001F02DC01CB01BC01CD010E944900DC0122
:1021A000CB019E838D830FC088EC90E09C838B8352
:1021B0008B819C810197F1F79C838B838D819E811C
:1021C00001979E838D838D819E81009769F714C04E
:1021D0006F81788589859A850E944900DC01CB0151
:1021E0009E838D838D819E819A83898389819A8143
:1021F0000197F1F79A838983AB960FB6F894DEBF07
:102200000FBECDBFCF91DF910895DF93CF9300D064
:102210000F92CDB7DEB79B838A83198219820EC0D5
:102220008981282F30E08A819B81FC01E20FF31F16
:1022300080810E946C0F89818F5F89838981282F1B
:1022400030E08A819B81FC01E20FF31F80818823AB
:1022500039F70F900F900F90CF91DF910895DF9392
:10226000CF9300D000D0CDB7DEB789836A838A814F
:102270008823E1F08A818131C8F48981282F30E0F8
:102280003C832B838B819C818130910531F02B81A4
:102290003C812230310531F009C08A8181580E9489
:1022A0004A0E04C08A8181540E944A0E0F900F90FA
:1022B0000F900F90CF91DF910895DF93CF93CDB71B
:1022C000DEB762970FB6F894DEBF0FBECDBF898B25
:1022D0006A8B80E40E944A0E188A0CC08889882F75
:1022E00090E0FC01E058FF4F80810E946C0F8889CC
:1022F0008F5F888B8889803488F380E80E944A0E3B
:1023000089896A890E942F111F8678C08F850E9453
:102310006C0F80E090E0A0EAB0E48B879C87AD87EB
:10232000BE876B857C858D859E8520E030E04AEFF9
:1023300054E40E941F02DC01CB018F839887A98798
:10234000BA876F81788589859A8520E030E040E8FA
:102350005FE30E94790388232CF481E090E09E8360
:102360008D833FC06F81788589859A8520E03FEF16
:102370004FE757E40E94190318164CF56B857C85CE
:102380008D859E8520E030E040E251E40E941F02EE
:10239000DC01CB01BC01CD010E944900DC01CB0175
:1023A0009E838D830FC088EC90E09C838B838B8110
:1023B0009C810197F1F79C838B838D819E8101978E
:1023C0009E838D838D819E81009769F714C06F81F4
:1023D000788589859A850E944900DC01CB019E831E
:1023E0008D838D819E819A83898389819A810197CA
:1023F000F1F79A8389838F858F5F8F878F858830E8
:1024000008F484CF62960FB6F894DEBF0FBECDBF3E
:10241000CF91DF910895DF93CF93CDB7DEB72797A4
:102420000FB6F894DEBF0FBECDBF9C838B836D8348
:102430004E832F838D81882F90E0880F991F880FFE
:10244000991F880F991F8A838A81805C0E944A0E97
:1024500019820EC08981282F30E08B819C81FC017C
:10246000E20FF31F80810E946C0F89818F5F898347
:102470008981883078F38E816F810E942F118D8140
:102480000E946C0F27960FB6F894DEBF0FBECDBF2B
:10249000CF91DF910895DF93CF93CDB7DEB76397E8
:1024A0000FB6F894DEBF0FBECDBF0E94A3050E94F9
:1024B000220B81E061E00E942F1189810E946C0F44
:1024C000CE0101960E94130A89818F3FC1F1898153
:1024D0008133D9F089818233C1F089818333A9F0B6
:1024E0008981843391F08981853379F089818633BC
:1024F00061F08981873349F08981883331F089819E
:10250000893319F089818033D1F48091980081302A
:1025100029F481E00E944A0E1092980030919900AF
:10252000832F90E02981FC01E857FF4F2083832F00
:102530008F5F8093990089810E946C0FC1CF898140
:102540008B3249F089818D3231F089818A3219F0DC
:1025500089818F32C9F489810E946C0F88E890E0EC
:102560000E94851390939B0080939A0088E890E0E6
:1025700060E070E040E150E00E94D41489818093D3
:10258000A000109299009CCF89818D3309F0ABC0D7
:1025900081E00E944A0E81E08093980088E890E0F4
:1025A0000E94851390939D0080939C0088E890E0A2
:1025B00060E070E040E150E00E94D4148091A000FF
:1025C000282F30E03B8B2A8B4A895B894B3251059F
:1025D000B1F08A899B898C32910534F42A893B8930
:1025E0002A32310551F14EC04A895B894D3251057D
:1025F000A9F08A899B898F329105A1F143C080910E
:102600009A0090919B0020919C0030919D00820F38
:10261000931F90939F0080939E0034C080919A00F6
:1026200090919B0020919C0030919D00821B930B08
:1026300090939F0080939E0025C080919A00909176
:102640009B0020919C0030919D00AC01429FC001F5
:10265000439F900D529F900D112490939F00809363
:102660009E0010C080919A0090919B0020919C0048
:1026700030919D00B9010E948A14CB0190939F0074
:1026800080939E0080919E0090919F00992374F406
:1026900080919E0090919F00909581959F4F90937F
:1026A0009F0080939E008DE20E946C0F80919E009F
:1026B00090919F009E012E5F3F4FB9010E94EB1346
:1026C000CE0102960E9405111092990010929B0073
:1026D00010929A0010929D0010929C0010929F0000
:1026E00010929E00EDCE8981833409F0E9CE88E80E
:1026F00090E060E070E040E150E00E94D41410925D
:10270000990081E00E944A0EDBCEDF93CF93CDB7D4
:10271000DEB728970FB6F894DEBF0FBECDBF9E83FD
:102720008D831C821B8281E090E09A838983ED81F6
:10273000FE8180818D3291F58FEF9FEF9A8389839F
:102740008D819E8101969E838D8328C0ED81FE81BF
:102750008081803328F0ED81FE8180818A3318F0FA
:1027600018861F822DC08B819C819C01220F331FF4
:10277000C901880F991F880F991F280F391FED81F4
:10278000FE818081882F90E0820F931FC0979C83E9
:102790008B838D819E8101969E838D83ED81FE8149
:1027A0008081882399F629813A818B819C81289F99
:1027B000A001299F500D389F500D112458874F8339
:1027C0008F81988528960FB6F894DEBF0FBECDBFD7
:1027D000CF91DF910895DF93CF93CDB7DEB72997DF
:1027E0000FB6F894DEBF0FBECDBF9F838E8379876F
:1027F00068871D821C82288539858C819D81F9011D
:10280000E80FF91F8E819F812AE030E0B9010E9414
:102810007614805D80838C819D8101969D838C835D
:102820008E819F812AE030E0B9010E947614CB01AD
:102830009F838E838E819F810097E9F68885998595
:102840002C813D81FC01E20FF31F10821B821A8252
:1028500039C0288539858A819B81F901E80FF91FE4
:1028600080818983288539858A819B81D901A80F38
:10287000B91F2C813D818A819B81A901481B590B7D
:10288000CA019C012150304088859985FC01E20FE6
:10289000F31F80818C932C813D818A819B81A901CA
:1028A000481B590BCA019C012150304088859985ED
:1028B000FC01E20FF31F898180838A819B8101964D
:1028C0009B838A838C819D819C01369527958A8183
:1028D0009B818217930708F4BCCF29960FB6F89412
:1028E000DEBF0FBECDBFCF91DF910895AA1BBB1BEA
:1028F00051E107C0AA1FBB1FA617B70710F0A61B00
:10290000B70B881F991F5A95A9F780959095BC0120
:10291000CD01089597FB092E07260AD077FD04D034
:10292000E5DF06D000201AF4709561957F4F089579
:10293000F6F7909581959F4F08952F923F924F9271
:102940005F926F927F928F929F92AF92BF92CF923F
:10295000DF92EF92FF920F931F93CF93DF93CDB748
:10296000DEB7CA1BDB0B0FB6F894DEBF0FBECDBFC0
:1029700009942A88398848885F846E847D848C8491
:102980009B84AA84B984C884DF80EE80FD800C819A
:102990001B81AA81B981CE0FD11D0FB6F894DEBF7D
:1029A0000FBECDBFED010895DC0101C06D93415014
:0A29B0005040E0F70895F894FFCFBF
:1029BA0000000000000000003738392F3435362A6D
:1029CA003132332D43303D2B000102030405060743
:0829DA00020017151F000000A8
:00000001FF
